{
  "_format": "hh-sol-artifact-1",
  "contractName": "BlueVaultToken",
  "sourceName": "contracts/BlueVaultToken.sol",
  "abi": [
    {
      "inputs": [
        {
          "internalType": "string",
          "name": "name",
          "type": "string"
        },
        {
          "internalType": "string",
          "name": "symbol",
          "type": "string"
        }
      ],
      "stateMutability": "nonpayable",
      "type": "constructor"
    },
    {
      "inputs": [
        {
          "internalType": "address",
          "name": "spender",
          "type": "address"
        },
        {
          "internalType": "uint256",
          "name": "allowance",
          "type": "uint256"
        },
        {
          "internalType": "uint256",
          "name": "needed",
          "type": "uint256"
        }
      ],
      "name": "ERC20InsufficientAllowance",
      "type": "error"
    },
    {
      "inputs": [
        {
          "internalType": "address",
          "name": "sender",
          "type": "address"
        },
        {
          "internalType": "uint256",
          "name": "balance",
          "type": "uint256"
        },
        {
          "internalType": "uint256",
          "name": "needed",
          "type": "uint256"
        }
      ],
      "name": "ERC20InsufficientBalance",
      "type": "error"
    },
    {
      "inputs": [
        {
          "internalType": "address",
          "name": "approver",
          "type": "address"
        }
      ],
      "name": "ERC20InvalidApprover",
      "type": "error"
    },
    {
      "inputs": [
        {
          "internalType": "address",
          "name": "receiver",
          "type": "address"
        }
      ],
      "name": "ERC20InvalidReceiver",
      "type": "error"
    },
    {
      "inputs": [
        {
          "internalType": "address",
          "name": "sender",
          "type": "address"
        }
      ],
      "name": "ERC20InvalidSender",
      "type": "error"
    },
    {
      "inputs": [
        {
          "internalType": "address",
          "name": "spender",
          "type": "address"
        }
      ],
      "name": "ERC20InvalidSpender",
      "type": "error"
    },
    {
      "inputs": [
        {
          "internalType": "address",
          "name": "owner",
          "type": "address"
        }
      ],
      "name": "OwnableInvalidOwner",
      "type": "error"
    },
    {
      "inputs": [
        {
          "internalType": "address",
          "name": "account",
          "type": "address"
        }
      ],
      "name": "OwnableUnauthorizedAccount",
      "type": "error"
    },
    {
      "anonymous": false,
      "inputs": [
        {
          "indexed": true,
          "internalType": "address",
          "name": "owner",
          "type": "address"
        },
        {
          "indexed": true,
          "internalType": "address",
          "name": "spender",
          "type": "address"
        },
        {
          "indexed": false,
          "internalType": "uint256",
          "name": "value",
          "type": "uint256"
        }
      ],
      "name": "Approval",
      "type": "event"
    },
    {
      "anonymous": false,
      "inputs": [
        {
          "indexed": true,
          "internalType": "address",
          "name": "previousOwner",
          "type": "address"
        },
        {
          "indexed": true,
          "internalType": "address",
          "name": "newOwner",
          "type": "address"
        }
      ],
      "name": "OwnershipTransferred",
      "type": "event"
    },
    {
      "anonymous": false,
      "inputs": [
        {
          "indexed": true,
          "internalType": "address",
          "name": "recipient",
          "type": "address"
        },
        {
          "indexed": false,
          "internalType": "uint256",
          "name": "amount",
          "type": "uint256"
        },
        {
          "indexed": false,
          "internalType": "string",
          "name": "ipfsHash",
          "type": "string"
        },
        {
          "indexed": false,
          "internalType": "uint256",
          "name": "recordId",
          "type": "uint256"
        },
        {
          "indexed": false,
          "internalType": "uint256",
          "name": "timestamp",
          "type": "uint256"
        }
      ],
      "name": "TokensMinted",
      "type": "event"
    },
    {
      "anonymous": false,
      "inputs": [
        {
          "indexed": true,
          "internalType": "address",
          "name": "from",
          "type": "address"
        },
        {
          "indexed": true,
          "internalType": "address",
          "name": "to",
          "type": "address"
        },
        {
          "indexed": false,
          "internalType": "uint256",
          "name": "value",
          "type": "uint256"
        }
      ],
      "name": "Transfer",
      "type": "event"
    },
    {
      "inputs": [
        {
          "internalType": "address",
          "name": "owner",
          "type": "address"
        },
        {
          "internalType": "address",
          "name": "spender",
          "type": "address"
        }
      ],
      "name": "allowance",
      "outputs": [
        {
          "internalType": "uint256",
          "name": "",
          "type": "uint256"
        }
      ],
      "stateMutability": "view",
      "type": "function"
    },
    {
      "inputs": [
        {
          "internalType": "address",
          "name": "spender",
          "type": "address"
        },
        {
          "internalType": "uint256",
          "name": "value",
          "type": "uint256"
        }
      ],
      "name": "approve",
      "outputs": [
        {
          "internalType": "bool",
          "name": "",
          "type": "bool"
        }
      ],
      "stateMutability": "nonpayable",
      "type": "function"
    },
    {
      "inputs": [
        {
          "internalType": "address",
          "name": "account",
          "type": "address"
        }
      ],
      "name": "balanceOf",
      "outputs": [
        {
          "internalType": "uint256",
          "name": "",
          "type": "uint256"
        }
      ],
      "stateMutability": "view",
      "type": "function"
    },
    {
      "inputs": [],
      "name": "decimals",
      "outputs": [
        {
          "internalType": "uint8",
          "name": "",
          "type": "uint8"
        }
      ],
      "stateMutability": "view",
      "type": "function"
    },
    {
      "inputs": [
        {
          "internalType": "uint256",
          "name": "recordId",
          "type": "uint256"
        }
      ],
      "name": "getMintRecord",
      "outputs": [
        {
          "internalType": "address",
          "name": "recipient",
          "type": "address"
        },
        {
          "internalType": "uint256",
          "name": "amount",
          "type": "uint256"
        },
        {
          "internalType": "string",
          "name": "ipfsHash",
          "type": "string"
        },
        {
          "internalType": "uint256",
          "name": "timestamp",
          "type": "uint256"
        }
      ],
      "stateMutability": "view",
      "type": "function"
    },
    {
      "inputs": [],
      "name": "getTotalMintRecords",
      "outputs": [
        {
          "internalType": "uint256",
          "name": "",
          "type": "uint256"
        }
      ],
      "stateMutability": "view",
      "type": "function"
    },
    {
      "inputs": [
        {
          "internalType": "address",
          "name": "to",
          "type": "address"
        },
        {
          "internalType": "uint256",
          "name": "amount",
          "type": "uint256"
        },
        {
          "internalType": "string",
          "name": "ipfsHash",
          "type": "string"
        }
      ],
      "name": "mint",
      "outputs": [
        {
          "internalType": "uint256",
          "name": "",
          "type": "uint256"
        }
      ],
      "stateMutability": "nonpayable",
      "type": "function"
    },
    {
      "inputs": [],
      "name": "mintCount",
      "outputs": [
        {
          "internalType": "uint256",
          "name": "",
          "type": "uint256"
        }
      ],
      "stateMutability": "view",
      "type": "function"
    },
    {
      "inputs": [
        {
          "internalType": "uint256",
          "name": "",
          "type": "uint256"
        }
      ],
      "name": "mintRecords",
      "outputs": [
        {
          "internalType": "address",
          "name": "recipient",
          "type": "address"
        },
        {
          "internalType": "uint256",
          "name": "amount",
          "type": "uint256"
        },
        {
          "internalType": "string",
          "name": "ipfsHash",
          "type": "string"
        },
        {
          "internalType": "uint256",
          "name": "timestamp",
          "type": "uint256"
        }
      ],
      "stateMutability": "view",
      "type": "function"
    },
    {
      "inputs": [],
      "name": "name",
      "outputs": [
        {
          "internalType": "string",
          "name": "",
          "type": "string"
        }
      ],
      "stateMutability": "view",
      "type": "function"
    },
    {
      "inputs": [],
      "name": "owner",
      "outputs": [
        {
          "internalType": "address",
          "name": "",
          "type": "address"
        }
      ],
      "stateMutability": "view",
      "type": "function"
    },
    {
      "inputs": [],
      "name": "renounceOwnership",
      "outputs": [],
      "stateMutability": "nonpayable",
      "type": "function"
    },
    {
      "inputs": [],
      "name": "symbol",
      "outputs": [
        {
          "internalType": "string",
          "name": "",
          "type": "string"
        }
      ],
      "stateMutability": "view",
      "type": "function"
    },
    {
      "inputs": [],
      "name": "totalSupply",
      "outputs": [
        {
          "internalType": "uint256",
          "name": "",
          "type": "uint256"
        }
      ],
      "stateMutability": "view",
      "type": "function"
    },
    {
      "inputs": [
        {
          "internalType": "address",
          "name": "to",
          "type": "address"
        },
        {
          "internalType": "uint256",
          "name": "value",
          "type": "uint256"
        }
      ],
      "name": "transfer",
      "outputs": [
        {
          "internalType": "bool",
          "name": "",
          "type": "bool"
        }
      ],
      "stateMutability": "nonpayable",
      "type": "function"
    },
    {
      "inputs": [
        {
          "internalType": "address",
          "name": "from",
          "type": "address"
        },
        {
          "internalType": "address",
          "name": "to",
          "type": "address"
        },
        {
          "internalType": "uint256",
          "name": "value",
          "type": "uint256"
        }
      ],
      "name": "transferFrom",
      "outputs": [
        {
          "internalType": "bool",
          "name": "",
          "type": "bool"
        }
      ],
      "stateMutability": "nonpayable",
      "type": "function"
    },
    {
      "inputs": [
        {
          "internalType": "address",
          "name": "newOwner",
          "type": "address"
        }
      ],
      "name": "transferOwnership",
      "outputs": [],
      "stateMutability": "nonpayable",
      "type": "function"
    }
  ],
  "bytecode": "0x608060405234801561001057600080fd5b506040516112c53803806112c583398101604081905261002f9161019d565b338282600361003e838261028f565b50600461004b828261028f565b5050506001600160a01b03811661007c57604051631e4fbdf760e01b81526000600482015260240160405180910390fd5b61008581610092565b505060006007555061034d565b600580546001600160a01b038381166001600160a01b0319831681179093556040519116919082907f8be0079c531659141344cd1fd0a4f28419497f9722a3daafe3b4186f6b6457e090600090a35050565b634e487b7160e01b600052604160045260246000fd5b600082601f83011261010b57600080fd5b81516001600160401b03811115610124576101246100e4565b604051601f8201601f19908116603f011681016001600160401b0381118282101715610152576101526100e4565b60405281815283820160200185101561016a57600080fd5b60005b828110156101895760208186018101518383018201520161016d565b506000918101602001919091529392505050565b600080604083850312156101b057600080fd5b82516001600160401b038111156101c657600080fd5b6101d2858286016100fa565b602085015190935090506001600160401b038111156101f057600080fd5b6101fc858286016100fa565b9150509250929050565b600181811c9082168061021a57607f821691505b60208210810361023a57634e487b7160e01b600052602260045260246000fd5b50919050565b601f82111561028a57806000526020600020601f840160051c810160208510156102675750805b601f840160051c820191505b818110156102875760008155600101610273565b50505b505050565b81516001600160401b038111156102a8576102a86100e4565b6102bc816102b68454610206565b84610240565b6020601f8211600181146102f057600083156102d85750848201515b600019600385901b1c1916600184901b178455610287565b600084815260208120601f198516915b828110156103205787850151825560209485019460019092019101610300565b508482101561033e5786840151600019600387901b60f8161c191681555b50505050600190811b01905550565b610f698061035c6000396000f3fe608060405234801561001057600080fd5b506004361061010b5760003560e01c80638f9e0007116100a2578063b6f8f40411610071578063b6f8f404146101ff578063cb07b7ff14610222578063d3fc986414610235578063dd62ed3e14610248578063f2fde38b1461028157600080fd5b80638f9e0007146101d357806395d89b41146101db5780639659867e146101e3578063a9059cbb146101ec57600080fd5b8063313ce567116100de578063313ce5671461017657806370a0823114610185578063715018a6146101ae5780638da5cb5b146101b857600080fd5b806306fdde0314610110578063095ea7b31461012e57806318160ddd1461015157806323b872dd14610163575b600080fd5b610118610294565b6040516101259190610b59565b60405180910390f35b61014161013c366004610b8f565b610326565b6040519015158152602001610125565b6002545b604051908152602001610125565b610141610171366004610bb9565b610340565b60405160128152602001610125565b610155610193366004610bf6565b6001600160a01b031660009081526020819052604090205490565b6101b6610364565b005b6005546040516001600160a01b039091168152602001610125565b600754610155565b610118610378565b61015560075481565b6101416101fa366004610b8f565b610387565b61021261020d366004610c11565b610395565b6040516101259493929190610c2a565b610212610230366004610c11565b610450565b610155610243366004610c78565b61059a565b610155610256366004610d4b565b6001600160a01b03918216600090815260016020908152604080832093909416825291909152205490565b6101b661028f366004610bf6565b61072d565b6060600380546102a390610d7e565b80601f01602080910402602001604051908101604052809291908181526020018280546102cf90610d7e565b801561031c5780601f106102f15761010080835404028352916020019161031c565b820191906000526020600020905b8154815290600101906020018083116102ff57829003601f168201915b5050505050905090565b60003361033481858561076b565b60019150505b92915050565b60003361034e85828561077d565b6103598585856107fc565b506001949350505050565b61036c61085b565b6103766000610888565b565b6060600480546102a390610d7e565b6000336103348185856107fc565b6006602052600090815260409020805460018201546002830180546001600160a01b039093169391926103c790610d7e565b80601f01602080910402602001604051908101604052809291908181526020018280546103f390610d7e565b80156104405780601f1061041557610100808354040283529160200191610440565b820191906000526020600020905b81548152906001019060200180831161042357829003601f168201915b5050505050908060030154905084565b6000806060600060075485106104a55760405162461bcd60e51b8152602060048201526015602482015274149958dbdc9908191bd95cc81b9bdd08195e1a5cdd605a1b60448201526064015b60405180910390fd5b6000858152600660209081526040808320815160808101835281546001600160a01b0316815260018201549381019390935260028101805491928401916104eb90610d7e565b80601f016020809104026020016040519081016040528092919081815260200182805461051790610d7e565b80156105645780601f1061053957610100808354040283529160200191610564565b820191906000526020600020905b81548152906001019060200180831161054757829003601f168201915b50505091835250506003919091015460209182015281519082015160408301516060909301519199909850919650945092505050565b60006105a461085b565b600083116105f45760405162461bcd60e51b815260206004820152601d60248201527f416d6f756e74206d7573742062652067726561746572207468616e2030000000604482015260640161049c565b60008251116106455760405162461bcd60e51b815260206004820152601960248201527f4950465320686173682063616e6e6f7420626520656d70747900000000000000604482015260640161049c565b61064f84846108da565b600754604080516080810182526001600160a01b03878116825260208083018881528385018881524260608601526000878152600690935294909120835181546001600160a01b0319169316929092178255516001820155915190919060028201906106bb9082610e06565b5060609190910151600390910155600780549060006106d983610edb565b9190505550846001600160a01b03167fbd2c987ced94c711b8c71d43a90306b999b7e7b07ebda0f110e9b55032345bc78585844260405161071d9493929190610ef4565b60405180910390a2949350505050565b61073561085b565b6001600160a01b03811661075f57604051631e4fbdf760e01b81526000600482015260240161049c565b61076881610888565b50565b6107788383836001610914565b505050565b6001600160a01b038381166000908152600160209081526040808320938616835292905220546000198110156107f657818110156107e757604051637dc7a0d960e11b81526001600160a01b0384166004820152602481018290526044810183905260640161049c565b6107f684848484036000610914565b50505050565b6001600160a01b03831661082657604051634b637e8f60e11b81526000600482015260240161049c565b6001600160a01b0382166108505760405163ec442f0560e01b81526000600482015260240161049c565b6107788383836109e9565b6005546001600160a01b031633146103765760405163118cdaa760e01b815233600482015260240161049c565b600580546001600160a01b038381166001600160a01b0319831681179093556040519116919082907f8be0079c531659141344cd1fd0a4f28419497f9722a3daafe3b4186f6b6457e090600090a35050565b6001600160a01b0382166109045760405163ec442f0560e01b81526000600482015260240161049c565b610910600083836109e9565b5050565b6001600160a01b03841661093e5760405163e602df0560e01b81526000600482015260240161049c565b6001600160a01b03831661096857604051634a1406b160e11b81526000600482015260240161049c565b6001600160a01b03808516600090815260016020908152604080832093871683529290522082905580156107f657826001600160a01b0316846001600160a01b03167f8c5be1e5ebec7d5bd14f71427d1e84f3dd0314c0f7b2291e5b200ac8c7c3b925846040516109db91815260200190565b60405180910390a350505050565b6001600160a01b038316610a14578060026000828254610a099190610f20565b90915550610a869050565b6001600160a01b03831660009081526020819052604090205481811015610a675760405163391434e360e21b81526001600160a01b0385166004820152602481018290526044810183905260640161049c565b6001600160a01b03841660009081526020819052604090209082900390555b6001600160a01b038216610aa257600280548290039055610ac1565b6001600160a01b03821660009081526020819052604090208054820190555b816001600160a01b0316836001600160a01b03167fddf252ad1be2c89b69c2b068fc378daa952ba7f163c4a11628f55a4df523b3ef83604051610b0691815260200190565b60405180910390a3505050565b6000815180845260005b81811015610b3957602081850181015186830182015201610b1d565b506000602082860101526020601f19601f83011685010191505092915050565b602081526000610b6c6020830184610b13565b9392505050565b80356001600160a01b0381168114610b8a57600080fd5b919050565b60008060408385031215610ba257600080fd5b610bab83610b73565b946020939093013593505050565b600080600060608486031215610bce57600080fd5b610bd784610b73565b9250610be560208501610b73565b929592945050506040919091013590565b600060208284031215610c0857600080fd5b610b6c82610b73565b600060208284031215610c2357600080fd5b5035919050565b60018060a01b0385168152836020820152608060408201526000610c516080830185610b13565b905082606083015295945050505050565b634e487b7160e01b600052604160045260246000fd5b600080600060608486031215610c8d57600080fd5b610c9684610b73565b925060208401359150604084013567ffffffffffffffff811115610cb957600080fd5b8401601f81018613610cca57600080fd5b803567ffffffffffffffff811115610ce457610ce4610c62565b604051601f8201601f19908116603f0116810167ffffffffffffffff81118282101715610d1357610d13610c62565b604052818152828201602001881015610d2b57600080fd5b816020840160208301376000602083830101528093505050509250925092565b60008060408385031215610d5e57600080fd5b610d6783610b73565b9150610d7560208401610b73565b90509250929050565b600181811c90821680610d9257607f821691505b602082108103610db257634e487b7160e01b600052602260045260246000fd5b50919050565b601f82111561077857806000526020600020601f840160051c81016020851015610ddf5750805b601f840160051c820191505b81811015610dff5760008155600101610deb565b5050505050565b815167ffffffffffffffff811115610e2057610e20610c62565b610e3481610e2e8454610d7e565b84610db8565b6020601f821160018114610e685760008315610e505750848201515b600019600385901b1c1916600184901b178455610dff565b600084815260208120601f198516915b82811015610e985787850151825560209485019460019092019101610e78565b5084821015610eb65786840151600019600387901b60f8161c191681555b50505050600190811b01905550565b634e487b7160e01b600052601160045260246000fd5b600060018201610eed57610eed610ec5565b5060010190565b848152608060208201526000610f0d6080830186610b13565b6040830194909452506060015292915050565b8082018082111561033a5761033a610ec556fea26469706673582212207b28ead48773c80fe6a7e06d29c1be7b4c7674c4ca74b889715682b3b97351eb64736f6c634300081c0033",
  "linkReferences": {},
  "deployedLinkReferences": {}
}